S02B0000415453414D4432315F50726F76696E675F4669656C64735F4D61737465725F54656D706C6174652E29
S11300006020002035140000311400003114000079
S113001000000000000000000000000000000000DC
S11300200000000000000000000000003114000087
S11300300000000000000000311400003114000032
S11300403114000031140000311400003114000098
S11300503114000031140000311400003114000088
S11300603114000031140000311400003114000078
S11300703114000031140000311400003114000068
S11300803114000031140000311400003114000058
S11300903114000031140000311400003114000048
S11300A03114000031140000311400003114000038
S11300B00000000010B5064C2378002B07D1054B37
S11300C0002B02D0044800E000BF0123237010BDC0
S11300D00C0000200000000064170000084B10B55D
S11300E0002B03D00749084800E000BF0748036815
S11300F0002B00D110BD064B002BFBD09847F9E72D
S113010000000000100000206417000064170000C5
S11301100000000070B50020084B98470500084C0B
S1130120FA218900A047074B186007492800A04717
S1130130064B18600522064B1A6070BDC111000001
S1130140751500000000002040420F00040000204C
S113015010E000E030B5084B1C68084A00258021F7
S11301604902013807D3002CFBD054609560136812
S11301700B42FCD0F5E730BD0000002010E000E0A9
S113018010B5490840230024814202D2180010BD52
S11301901C00091A631C9BB28842F9D94023FF2C26
S11301A0F4D814800023F1E710B582B004000E4B9C
S11301B01B78002B07D0002905D10B4B5B788342B9
S11301C010D01D200CE001A90C701320074B984798
S11301D01320074B9847044B5C7001221A700020CF
S11301E002B010BD0020FBE728000020D912000057
S11301F04D120000404B984231D00AD93F4B9842EF
S11302004DD03F4B98425AD03E4B984237D00020B5
S113021070473D4B98420CD03C4B9842F7D1012992
S113022017D000295DD0022915D0032915D000204C
S1130230EEE7012907D0002951D0022905D003296E
S113024005D00020E4E73248E2E73248E0E73248EC
S1130250DEE73248DCE73248DAE73248D8E70129FA
S113026007D000293FD0022905D0032905D000205A
S1130270CEE72D48CCE72D48CAE72D48C8E7012929
S113028007D0002931D0022905D0032905D0002048
S1130290BEE72848BCE72848BAE72848B8E7012958
S11302A007D0002923D0022905D0032905D0002036
S11302B0AEE72348ACE72348AAE72348A8E7012987
S11302C007D0002915D0022905D0032905D0002024
S11302D09EE71E489CE71E489AE71E4898E71E487A
S11302E096E7032094E71D4892E71D4890E71D48D0
S11302F08EE71D488CE7C0460010004200180042FB
S1130300001C00420014004200080042000C00429D
S113031003000500030006000300070003000100BA
S113032003001E0003001F000300090003000A006D
S113033003000B000300110003001200030013006C
S113034003000D0003000E0003000F00030017005C
S11303500300180003001900030004000300080050
S11303600300100003000C000300160030B587B032
S11303700B4B6A4632CB32C232CB32C2009B834231
S11303800BD001239A0069465258824206D00133A9
S1130390062BF7D1002007B030BD0023D8B2FAE70E
S11303A0E4160000F0B5D6464F4680B58BB08146C2
S11303B00F001400030019600B689B0709D40B6835
S11303C00520DB0700D4B1E00BB00CBC91469A4683
S11303D0F0BD936A0593D36A0693136B0793536B2B
S11303E00893002605AB01930AE03800AF4B984709
S11303F00CE00F23184081422DD10136042E2FD05A
S1130400F1B2B300019A98580028EED0431CF4D0FE
S11304100104090C000CC3B29C460023020605D457
S113042063465B09DB01A24A924653441F2260469D
S11304300240981840300078824680205546ED07E7
S1130440D9D552089B1830331878C0B26346DB07FD
S1130450CFD50009CFE700234A4613601C20B3E739
S11304601320944B984722780025012A16D021782E
S1130470002927D13B68E27F1204A07F02431C209D
S11304809A42A1D1A369A28B0430205C002801D038
S113049040200243082003431D4314E004AA010042
S11304A0A069854B984703001720002B00D08BE7E9
S11304B03B7BDBB204AA127805309A4200D083E772
S11304C00C35D4E700226368A0680343E068034363
S11304D02B43207C0243607C002801D0802003430E
S11304E0A07C002802D0802080020243E07C002807
S11304F002D0802080000243207D002802D080208A
S113050080010243386802252B43834204D0002330
S11305104A4613601C2057E77B689342F7D14B4649
S11305205971237C4A46937100204DE70800634BC0
S11305309847634A116A851C0123AB400B4313623D
S113054009A92426A35D0B701430C5B228005D4BA5
S1130550984728005C4B9847A05D00215B4B984767
S11305602378012B20D02378002B03D13B68082269
S113057013433B604B461E6804AB80221A70002272
S11305805A7001219970DA702378002B01D104ABE1
S11305909A70A36A0593E36A0693236B0793636BCC
S11305A00893002705AD11E03B680C2213433B6020
S11305B0D9E730003D4B98470DE004A90870000CC2
S11305C0C0B2434B98470137042F07D0F9B2BB00A0
S11305D058590028EDD0431CEFD1F4E723784A465C
S11305E05371237C9371A37CD371237D13720022F6
S11305F002ABDA802378012B12D02378002B27D189
S1130600A069A28B736AE17F0904A57F294319437A
S113061071622023E35C002B1CD040231A4319E0B1
S11306204B461868254B98471430C0B2214B984765
S1130630010002AB9A1DA0691F4B984703001720C5
S1130640002B00D0C0E602AB06331B783373D4E72B
S1130650002200206368A1680B43E1680B43034355
S1130660217C0A43617C002903D11A4989788907CE
S113067001D580210B43A17C002902D0802189026D
S11306800A43E17C002902D0802189000A43217DAC
S1130690002902D0802189010A4331680B43336069
S11306A073681A43726000208EE6C046F5010000AC
S11306B000440041F5120000810100006D030000B8
S11306C000040040D91200004D120000A9010000EE
S11306D0D11300000020004110B544791523012CEA
S11306E001D0180010BD047A0023002CF9D1002A8F
S11306F058D04B78002B44D003681B7EDB0710D402
S11307000A78D1090023002904D15309DB012E49B9
S11307108C4663441F21114001228A409A610523BB
S1130720DFE70A78D4090023002C04D15309DB0144
S1130730254CA44663441F2414400122A2405A615C
S113074003681A7ED20701D58A789A62C279002397
S1130750002AC6D102680421137E0B42FCD0117E0C
S113076000234907BDD5538B5B0701D5042353836D
S11307708379012B02D0936A0023B2E7936A0023A2
S1130780AFE70A78D1090023002904D15309DB011A
S11307900D498C4663441F21114001228A405A614D
S11307A000239EE70A78D1090023002904D15309C4
S11307B0DB0105498C4663441F21114001228A4014
S11307C09A6100238DE7C0460044004100B583B020
S11307D001A901234B7000228A700B701020024B78
S11307E0984703B000BDC046710C000030B591B00D
S11307F0244C1123237000236370A37001A90122E8
S11308004A708B700A7011201F4B98472378D909BE
S11308100022002904D15A09D2011C498C466244A1
S11308201F211940012318008840906102AC2370F5
S113083000250395049525746574A374E3742575E4
S11308402333E5540C22002108A8114B9847E56096
S1130850104BA362104BE36201235B422363636387
S11308600E4BA3610E4D22000E4928000E4B9847F3
S11308702A68D369002BFCD1136802210B4313604F
S113088011B030BD58000020710C0000004400413C
S1130890D51600000300040003000500001BB70088
S11308A04C00002000080042A5030000034B1B6815
S11308B01A7ED20700D598627047C0464C000020CB
S11308C0F8B5070080225202084B5A61084E094DC0
S11308D0012231002800084CA0473800074B9847F4
S11308E0002231002800A047F8BDC0460044004162
S11308F0580000204C000020D9060000AD0800007C
S1130900F8B5070080225202084B9A61084E094D3F
S1130910012231002800084CA0473800074B9847B3
S1130920002231002800A047F8BDC0460044004121
S1130930580000204C000020D9060000AD0800003B
S1130940F0B583B00400802252020B4B9A610B4E27
S11309500B4D0122310028000A4FB8470194200AA8
S1130960094CA0476B461879A047002231002800A3
S1130970B84703B0F0BDC046004400415800002011
S11309804C000020D9060000AD08000070B5714B82
S113099098470120704EB0470120704DA84732207F
S11309A0B0471120A8470520B047B120A84701202F
S11309B06B4CA0472C20A0472D20A0470120B04716
S11309C0B220A8470120A0472C20A0472D20A047F3
S11309D00120B047B320A8470120A0472C20A047FE
S11309E02D20A0470120A0472C20A0472D20A04760
S11309F00120B047B420A8470720A0470120B047F2
S1130A00C020A8470A20A0470220A0478420A0476E
S1130A100120B047C120A847C520A0470120B04706
S1130A20C220A8470A20A0470020A0470120B047C1
S1130A30C320A8478A20A0472A20A0470120B04706
S1130A40C420A8478A20A047EE20A0470120B04731
S1130A50C520A8470E20A0470120B0472020A84762
S1130A603620A847C820A0470120B0473A20A8470D
S1130A700520A0470120B0472A20A8470020A0470E
S1130A800020A0470020A0477F20A0470120B047B6
S1130A902B20A8470020A0470020A0470020A04703
S1130AA09F20A0470120B047E020A8470220A0478C
S1130AB01C20A0470720A0471220A0473720A047AA
S1130AC03220A0472920A0472D20A0472920A04755
S1130AD02520A0472B20A0473920A0470020A0476D
S1130AE00120A0470320A0471020A0470120B047C1
S1130AF0E120A8470320A0471D20A0470720A047C6
S1130B000620A0472E20A0472C20A0472920A0473C
S1130B102D20A0472E20A0472E20A0473720A047F5
S1130B203F20A0470020A0470020A0470220A04764
S1130B301020A0470120B0471320A8470A20B0473F
S1130B402920A8476420B0473620A847C020A047E2
S1130B5070BDC046ED07000055010000C10800004B
S1130B6001090000F0B583B004000E0017000193E2
S1130B702A20084DA8472000074CA0473800A0476A
S1130B802B20A8473000A0470198A0472C20A84755
S1130B9003B0F0BDC10800004109000070B50600B3
S1130BA0A023802200210020054CA047A024E401BA
S1130BB0044D3000A847013C002CFAD170BDC0465A
S1130BC0650B0000410900000C4B1B68002B06D18B
S1130BD0EFF31083002B07D00022094B1A70074A49
S1130BE0136801331360704772B6BFF35F8F00223E
S1130BF0044B1A700132024B1A70F0E72C000020EB
S1130C003000002008000020084B1A68013A1A60DE
S1130C101B68002B09D1064B1B78002B05D0012241
S1130C20044B1A70BFF35F8F62B670472C0000202C
S1130C303000002008000020F0B583B001AC01258D
S1130C4065700027A770257021003E20064EB0472E
S1130C508022D205054B9A612770657021000F2010
S1130C60B04703B0F0BDC046710C000080440041A1
S1130C7000B583B001AB80221A700A785A704A78A2
S1130C809A708A78DA701900014B984703B000BD56
S1130C90D113000010B5082803D880001C4B1B5842
S1130CA09F46002032E01B4B18692FE01A4B1B6A49
S1130CB09B059B0F1948D84028E0164B586925E03E
S1130CC0144B1B6800209B0720D513491022CB68C6
S1130CD01A42FCD00F4B1A6824231340042B01D072
S1130CE00F4813E000200F4B98470A4B9B681B04E6
S1130CF01B0C58430AE05023074AD35C00205B07CF
S1130D0004D5044BD86801E08020000210BDC04621
S1130D10FC160000340000200008004000127A0095
S1130D20006CDC02F512000070B50C490B6A047803
S1130D30857840780122104080014026B343034364
S1130D402A40D2018020834313430322224012020B
S1130D500348034013430B6270BDC04600080040C3
S1130D60FFFCFFFFF0B5DE4657464E464546E0B56C
S1130D700100264B9B469B8A4578007842424241BB
S1130D8091468878CA7894460A7990464E7B0F7BC0
S1130D908C7B8A681E494A6101214A469200914629
S1130DA0042293434A46134342460A40D2009046E3
S1130DB0082293434246134362460A401201944672
S1130DC01022934362461343084040012022934378
S1130DD003430F40BF01402083433B430E40F601D1
S1130DE0403083433343793805402D02094803409A
S1130DF02B4321400903084803400B435A4693827E
S1130E003CBC90469946A246AB46F0BD0008004063
S1130E1034000020FFF8FFFFFFEFFFFF10B5037A57
S1130E209B061B0C42899205920D134318494B6093
S1130E308379C279134342888488224313434278D6
S1130E40D20113430B600378042B11D0202B0ED155
S1130E50037B9B06028A1343C28912040D490A408C
S1130E6013430B4A936011680B4B0B43136010BD83
S1130E70037B9B06028A1343C289120405490A4074
S1130E801343034A9360136804210B431360EEE792
S1130E90340000200000FF0324040000082803D8C5
S1130EA08000254B1B589F46172044E0234A136AB1
S1130EB002210B43136200203DE0204A9369022182
S1130EC00B439361002036E01C4A138A02210B4332
S1130ED0138200202FE0194A938A02210B43938244
S1130EE0002028E016490B68022213430B60134BC1
S1130EF09A8419000E32CB681A42FCD0104A9168C9
S1130F000E4BD96252689A6200229A8419001032F8
S1130F10CB681A42FCD00A4B1B689BB2074A9384E5
S1130F20002008E0054944228B5C022003438B54D3
S1130F30002000E000207047201700000008004057
S1130F4034000020F0B58FB0C222D200474B9A6023
S1130F5047494B681E2293431C3A13434B6001AB31
S1130F601A700024434DE0B201A9A8470134252C8E
S1130F70F9D10AA8002303708370802212028260D0
S1130F80C370012202710373837305324270437389
S1130F90394B98470520394B984734490222CB688E
S1130FA01A42FCD0314A938A80210B43938205ABC9
S1130FB000210022598099809A71DA713F31598158
S1130FC03B3919705A702E4B1B689B0E3F2B4BD02C
S1130FD005A80372B723DB000382072303733833A6
S1130FE0C381284B984704A80025457001268670C4
S1130FF00570254B98470620204FB847234B984748
S113100001AC029665702572657205232370210078
S113101001201F4B984701201E4B98472670210042
S11310200020144B984700201B4B98470720B847D3
S11310300E49D022CB681340D02BFBD1174A002392
S1131040137253729372D37201A901224A604B70D6
S11310500B724B7207330B7000200D4B9847002026
S11310600C4B98470FB0F0BD203BB1E7000800409F
S113107000400041D9120000650D00009D0E0000E3
S1131080246080001D0E0000290D0000A110000046
S1131090C51000007D1100004D1200000004004046
S11310A0064A936908210B4393610122044B1A7089
S11310B019000B781342FCD17047C046000400406D
S11310C0000C004070B5060004000D782D020543A5
S11310D04B78002B02D08023DB021D434B7A002B7C
S11310E002D080231B031D434868012810D9431EE6
S11310F0184234D1022830D90223002201325B0085
S11311009842FBD812023243140080235B031D4330
S11311100B7A002B02D080239B031D43134A537880
S11311205BB2002BFBDB124B9847124B1E700F4A2D
S113113053785BB2002BFBDB0C4B9C601A0053789A
S11311405BB2002BFBDB094A5368802149020B4048
S11311501D435560084B984770BD0022D2E7040236
S1131160344380239B021D43D2E7C046000C004059
S1131170C90B0000080C0040090C000010B5040065
S11311800B4A53785BB2002BFBDB0A4B98470A4BA4
S11311901C70074A53785BB2002BFBDB044A51688E
S11311A080235B020B435360044B984710BDC04639
S11311B0000C0040C90B0000040C0040090C0000A6
S11311C070B504001A4A53785BB2002BFBDB194B51
S11311D09847194B1C70164A53785BB2002BFBDB03
S11311E0134E7068C004C00E144B98470500124B90
S11311F01C707668F602F60F114B1C700C4A53787B
S11312005BB2002BFBDB0A4B9C682402240C0D4BC5
S11312109847002E07D1012C07D9210028000A4B3A
S11312209847050001E00134E540280070BDC04640
S1131230000C0040C90B0000040C0040950C000099
S1131240080C0040090C00007515000010B50400DE
S1131250064B9847064B1C70064A53888021C901E7
S11312600B435380044B984710BDC046C90B000084
S1131270020C0040000C0040090C000010B50400F2
S11312800F4B98470F4B1C700F4A53881B05180FC0
S113129053880E490B40538053880D490B405380AB
S11312A011008022D2014B881342FCD106494A889E
S11312B003020648024013434B80064B984710BD77
S11312C0C90B0000020C0040000C0040FFF0FFFFBF
S11312D0FFBFFFFF090C000010B50C782402044383
S11312E0024B9847A4B2024B5C8010BD7D120000F3
S11312F0000C004010B50400064B9847064B1C70C8
S1131300064B5C882405240F054B98472000054BA9
S1131310984710BDC90B0000020C0040000C0040AF
S1131320090C0000C111000030B5D378002B35D171
S11313301378802B29D01B0680246402234354781D
S11313400225AC4306D19478002C20D18024A40239
S1131350234341605478013C012C1CD90D042D0C0D
S1131360A024E4052C431C4384620D0CD0242406E1
S11313702C431C438462D478002C22D15B031CD5FB
S11313809378012B1ED0416117E00023D7E7C024D6
S1131390E4022343DDE70D4C2340DFE741600C0406
S11313A0240CA023DB05234383620C0CD0231B06EF
S11313B023438362D378002B03D15378013B012B61
S11313C002D930BD8161F8E78160FAE7FFFFFBFFD6
S11313D010B50A00C1090023002904D14309DB0127
S11313E005498C4663441F24204001218140180094
S11313F0024B984710BDC046004400412913000029
S11314007047000010B5054B9847054B9847054BAE
S11314109847054B9847054B984710BD450F00006A
S1131420390C000001140000011400000114000034
S1131430FEE70000F8B52A4A2A4B9A4211D01A0056
S1131440294B9A420DD2294A03339B1A9B08013334
S11314509B000022234822498C58845004329A422B
S1131460FAD1234A234B9A420AD2D34321495B1827
S113147003218B4304339B18002102C29342FCD105
S11314801D4AFF211D4B8B439360FD3990235B0064
S11314901B4AD1501B4AD3780325AB430224234370
S11314A0D370D3780C27BB4308263343D370164B31
S11314B0987B30229043202210439873997BB94340
S11314C0314399739A7BAA4322439A730F4A536810
S11314D080210B4353600E4B98470E4B9847FEE711
S11314E064170000000000200C000020040000200D
S11314F00C0000205C00002000ED00E00000000073
S1131500007000410050004100480041004000418B
S11315108D1600001915000070B50F4B98470F4B3E
S113152098470F4B98470F4B9847F82000020E4BF3
S113153098470E4C0B4D07E08023DB056361A847F9
S1131540F8200002084B9847094B1B6A1B04F3D58B
S11315508023DB05A361F7E70514000015010000F3
S1131560CD0700008D0900009D0B00008044004160
S113157000440041002243088B4274D303098B4288
S11315805FD3030A8B4244D3030B8B4228D3030C4F
S11315908B420DD3FF22090212BA030C8B4202D3F1
S11315A01212090265D0030B8B4219D300E0090A19
S11315B0C30B8B4201D3CB03C01A5241830B8B4222
S11315C001D38B03C01A5241430B8B4201D34B030B
S11315D0C01A5241030B8B4201D30B03C01A524170
S11315E0C30A8B4201D3CB02C01A5241830A8B42F5
S11315F001D38B02C01A5241430A8B4201D34B02DE
S1131600C01A5241030A8B4201D30B02C01A524141
S1131610CDD2C3098B4201D3CB01C01A52418309F5
S11316208B4201D38B01C01A524143098B4201D32F
S11316304B01C01A524103098B4201D30B01C01A5A
S11316405241C3088B4201D3CB00C01A52418308D4
S11316508B4201D38B00C01A524143088B4201D301
S11316604B00C01A5241411A00D201465241104661
S11316707047FFE701B5002000F006F802BDC04640
S11316800029F7D076E770477047C04670B500264A
S11316900C4D0D4C641BA410A64209D1002600F089
S11316A051F80A4D0A4C641BA410A64205D170BD22
S11316B0B300EB5898470136EEE7B300EB58984770
S11316C00136F2E7501700005017000050170000D1
S11316D05417000003008218934200D17047197018
S11316E00133F9E700080042000C004200100042F8
S11316F00014004200180042001C0042A60C000026
S1131700A20C0000A20C0000080D0000080D00004F
S1131710BA0C0000AC0C0000C00C0000F60C000079
S1131720C80E0000A80E0000A80E0000340F000030
S1131730BA0E0000D60E0000AC0E0000E40E00004D
S1131740240F0000F8B5C046F8BC08BC9E4670479C
S1131750DD000000F8B5C046F8BC08BC9E467047E2
S1071760B5000000CC
S10F1764401F000008000000010000000D
S9031435B3
