:10000000A8200020CD170000C9170000C917000064
:1000100000000000000000000000000000000000E0
:10002000000000000000000000000000C9170000F0
:100030000000000000000000C9170000C917000000
:10004000C9170000C9170000C9170000C917000030
:1000500035030000C9170000C9170000C9170000C8
:10006000C9170000C9170000C9170000C917000010
:10007000C9170000C9170000C9170000C917000000
:10008000C9170000C9170000C9170000C9170000F0
:10009000C9170000C9170000C9170000C9170000E0
:1000A000C9170000C9170000C9170000C9170000D0
:1000B0000000000010B5064C2378002B07D1054B3B
:1000C000002B02D0044800E000BF0123237010BDC4
:1000D0000C00002000000000EC1F0000084B10B5D1
:1000E000002B03D00749084800E000BF0748036819
:1000F000002B00D110BD064B002BFBD09847F9E731
:100100000000000010000020EC1F0000EC1F0000A9
:1001100000000000044A137802210B431370537847
:100120005BB2002BFBDB70470018004000B583B0CA
:10013000124A936940210B43936101A900230B707C
:1001400005200F4B984705200E4B98470E4A137811
:1001500001210B43137053785BB2002BFBDB0B4B7D
:1001600019004031002204C39942FCD11022084BEF
:100170001A60084B984703B000BDC0460004004019
:1001800071160000E5150000001800404C0000202A
:1001900000E100E01501000000230360436001223C
:1001A0000272427283720233C3727047F0B583B039
:1001B00005000C0001A900234B70CB7023790B7054
:1001C000237A8B702078154B984700201F2D00D87C
:1001D000134807222A409200E77AA37A002B01D025
:1001E00008231F43EB089B00C31899690F2696400C
:1001F000B14397403A000A439A61637A002B06D1D3
:1002000043690122AA409343436103B0F0BD4269B0
:100210000123AB4013434361F7E7C0466917000071
:1002200000180040F0B5CE4600B58AB08146284A95
:100230000692284B07932848089028480990039273
:100240000493274B0593012905D0022921D00AB038
:1002500004BC9146F0BD06AF1E2400250EE021B27D
:1002600001235B42009300233A6808201D4EB047EB
:10027000013504370A34A4B2462CE8D0A945EED0A3
:1002800021B200230093013B3A680820154EB04785
:10029000EEE703AE1E2400270EE021B201235B42ED
:1002A00000930023326808200E4DA847013704361A
:1002B0000A34A4B23C2CCAD0B945EED021B20023F6
:1002C0000093013B32680820064DA847EEE7C04680
:1002D000301D00003C1D0000481D0000541D0000A2
:1002E000601D0000F90E00001723002A01D018003D
:1002F00070478B00064A9B58002B03D0834205D0E1
:100300001D23F4E7890088500023F0E70023EEE77F
:100310004C0000201723002901D01800704700224C
:100320001F2800D8024A01238340D3600023F4E74A
:100330000018004070B50022104B1A7000231049BD
:100340001F25104E0D4C0AE00D4908E023780133BB
:10035000DBB223700F2B10D800211F2BF4D92800FB
:1003600018400122824008691042EFD00A619B00C8
:100370009B59002BEAD09847E8E770BD8C0000201D
:10038000001800404C00002070B50020084B984732
:100390000500084CFA218900A047074B186007495F
:1003A0002800A047064B18600522064B1A6070BD56
:1003B00059150000C11B00000000002040420F0042
:1003C0000400002010E000E030B5084B1C68084A2B
:1003D000002580214902013807D3002CFBD054604E
:1003E000956013680B42FCD0F5E730BD000000209B
:1003F00010E000E010B5490840230024814202D2F9
:10040000180010BD1C00091A631C9BB28842F9D960
:100410004023FF2CF4D814800023F1E710B582B0FC
:1004200004000E4B1B78002B07D0002905D10B4B85
:100430005B78834210D01D200CE001A90C701320C2
:10044000074B98471320074B9847044B5C700122D9
:100450001A70002002B010BD0020FBE72800002029
:1004600071160000E5150000404B984231D00AD9C2
:100470003F4B98424DD03F4B98425AD03E4B98420A
:1004800037D0002070473D4B98420CD03C4B9842EF
:10049000F7D1012917D000295DD0022915D00329F1
:1004A00015D00020EEE7012907D0002951D00229FC
:1004B00005D0032905D00020E4E73248E2E73248BE
:1004C000E0E73248DEE73248DCE73248DAE7324834
:1004D000D8E7012907D000293FD0022905D00329F8
:1004E00005D00020CEE72D48CCE72D48CAE72D489F
:1004F000C8E7012907D0002931D0022905D00329F6
:1005000005D00020BEE72848BCE72848BAE72848BD
:10051000B8E7012907D0002923D0022905D00329F3
:1005200005D00020AEE72348ACE72348AAE72348DC
:10053000A8E7012907D0002915D0022905D00329F1
:1005400005D000209EE71E489CE71E489AE71E48FB
:1005500098E71E4896E7032094E71D4892E71D4858
:1005600090E71D488EE71D488CE7C046001000420A
:1005700000180042001C0042001400420008004223
:10058000000C004203000500030006000300070002
:100590000300010003001E0003001F000300090008
:1005A00003000A0003000B00030011000300120007
:1005B0000300130003000D0003000E0003000F00F2
:1005C00003001700030018000300190003000400D3
:1005D000030008000300100003000C0003001600D5
:1005E00030B587B00B4B6A4632CB32C232CB32C207
:1005F000009B83420BD001239A00694652588242E5
:1006000006D00133062BF7D1002007B030BD002300
:10061000D8B2FAE7681D0000F0B5D6464F4680B55F
:100620008BB081460F001400030019600B689B0714
:1006300009D40B680520DB0700D4B1E00BB00CBC7B
:1006400091469A46F0BD936A0593D36A0693136B5D
:100650000793536B0893002605AB01930AE038001B
:10066000AF4B98470CE00F23184081422DD1013643
:10067000042E2FD0F1B2B300019A98580028EED082
:10068000431CF4D00104090C000CC3B29C460023A7
:10069000020605D463465B09DB01A24A9246534435
:1006A0001F22604602409818403000788246802021
:1006B0005546ED07D9D552089B1830331878C0B28B
:1006C0006346DB07CFD50009CFE700234A46136016
:1006D0001C20B3E71320944B984722780025012A69
:1006E00016D02178002927D13B68E27F1204A07F31
:1006F00002431C209A42A1D1A369A28B0430205C42
:10070000002801D040200243082003431D4314E089
:1007100004AA0100A069854B984703001720002B0D
:1007200000D08BE73B7BDBB204AA127805309A42FB
:1007300000D083E70C35D4E700226368A068034348
:10074000E06803432B43207C0243607C002801D0F7
:1007500080200343A07C002802D080208002024336
:10076000E07C002802D0802080000243207D002809
:1007700002D0802080010243386802252B43834247
:1007800004D000234A4613601C2057E77B6893423D
:10079000F7D14B465971237C4A46937100204DE7AF
:1007A0000800634B9847634A116A851C0123AB40DC
:1007B0000B43136209A92426A35D0B701430C5B244
:1007C00028005D4B984728005C4B9847A05D0021AE
:1007D0005B4B98472378012B20D02378002B03D143
:1007E0003B68082213433B604B461E6804AB8022E3
:1007F0001A7000225A7001219970DA702378002B48
:1008000001D104AB9A70A36A0593E36A0693236B44
:100810000793636B0893002705AD11E03B680C223A
:1008200013433B60D9E730003D4B98470DE004A9E6
:100830000870000CC0B2434B98470137042F07D013
:10084000F9B2BB0058590028EDD0431CEFD1F4E7B2
:1008500023784A465371237C9371A37CD371237D03
:100860001372002202ABDA802378012B12D0237896
:10087000002B27D1A069A28B736AE17F0904A57FB1
:100880002943194371622023E35C002B1CD04023D1
:100890001A4319E04B461868254B98471430C0B2EC
:1008A000214B9847010002AB9A1DA0691F4B984746
:1008B00003001720002B00D0C0E602AB06331B78E4
:1008C0003373D4E7002200206368A1680B43E1681A
:1008D0000B430343217C0A43617C002903D11A495D
:1008E0008978890701D580210B43A17C002902D09A
:1008F000802189020A43E17C002902D080218900FD
:100900000A43217D002902D0802189010A433168F0
:100910000B43336073681A43726000208EE6C04652
:1009200069040000004400418D160000F50300003A
:10093000E10500000004004071160000E51500000C
:100940001D040000691700000020004110B5447923
:100950001523012C01D0180010BD047A0023002CAF
:10096000F9D1002A58D04B78002B44D003681B7E65
:10097000DB0710D40A78D1090023002904D15309D8
:10098000DB012E498C4663441F21114001228A401D
:100990009A610523DFE70A78D4090023002C04D1EB
:1009A0005309DB01254CA44663441F241440012253
:1009B000A2405A6103681A7ED20701D58A789A62EA
:1009C000C2790023002AC6D102680421137E0B429B
:1009D000FCD0117E00234907BDD5538B5B0701D5A1
:1009E000042353838379012B02D0936A0023B2E757
:1009F000936A0023AFE70A78D1090023002904D1C4
:100A00005309DB010D498C4663441F21114001222B
:100A10008A405A6100239EE70A78D1090023002901
:100A200004D15309DB0105498C4663441F21114061
:100A300001228A409A6100238DE7C04600440041AC
:100A400000B583B001A901234B7000228A700B709E
:100A50001020024B984703B000BDC04609100000AB
:100A600030B591B0244C1123237000236370A37020
:100A700001A901224A708B700A7011201F4B984700
:100A80002378D9090022002904D15A09D2011C492E
:100A90008C4662441F211940012318008840906150
:100AA00002AC237000250395049525746574A37426
:100AB000E37425752333E5540C22002108A8114B5B
:100AC0009847E560104BA362104BE36201235B4241
:100AD000236363630E4BA3610E4D22000E49280071
:100AE0000E4B98472A68D369002BFCD1136802216A
:100AF0000B43136011B030BD9C00002009100000B2
:100B000000440041211D0000030004000300050013
:100B1000001BB700900000200008004219060000EA
:100B2000034B1B681A7ED20700D598627047C046F7
:100B300090000020F8B5070080225202084B5A614D
:100B4000084E094D012231002800084CA04738000A
:100B5000074B9847002231002800A047F8BDC04647
:100B6000004400419C000020900000204D0900003E
:100B7000210B0000F8B5070080225202084B9A6151
:100B8000084E094D012231002800084CA0473800CA
:100B9000074B9847002231002800A047F8BDC04607
:100BA000004400419C000020900000204D090000FE
:100BB000210B0000F0B583B00400802252020B4BE1
:100BC0009A610B4E0B4D0122310028000A4FB847A5
:100BD0000194200A094CA0476B461879A0470022CF
:100BE00031002800B84703B0F0BDC04600440041C2
:100BF0009C000020900000204D090000210B000007
:100C000070B5714B98470120704EB0470120704D70
:100C1000A8473220B0471120A8470520B047B1208F
:100C2000A84701206B4CA0472C20A0472D20A047AF
:100C30000120B047B220A8470120A0472C20A047A0
:100C40002D20A0470120B047B320A8470120A0478E
:100C50002C20A0472D20A0470120A0472C20A047F2
:100C60002D20A0470120B047B420A8470720A04767
:100C70000120B047C020A8470A20A0470220A04773
:100C80008420A0470120B047C120A847C520A04725
:100C90000120B047C220A8470A20A0470020A04753
:100CA0000120B047C320A8478A20A0472A20A04798
:100CB0000120B047C420A8478A20A047EE20A047C3
:100CC0000120B047C520A8470E20A0470120B0470B
:100CD0002020A8473620A847C820A0470120B047B9
:100CE0003A20A8470520A0470120B0472A20A8475E
:100CF0000020A0470020A0470020A0477F20A04759
:100D00000120B0472B20A8470020A0470020A04783
:100D10000020A0479F20A0470120B047E020A8471F
:100D20000220A0471C20A0470720A0471220A04770
:100D30003720A0473220A0472920A0472D20A047D8
:100D40002920A0472520A0472B20A0473920A047D5
:100D50000020A0470120A0470320A0471020A04763
:100D60000120B047E120A8470320A0471D20A0474D
:100D70000720A0470620A0472E20A0472C20A047F0
:100D80002920A0472D20A0472E20A0472E20A04795
:100D90003720A0473F20A0470020A0470020A047C1
:100DA0000220A0471020A0470120B0471320A847E9
:100DB0000A20B0472920A8476420B0473620A8471A
:100DC000A020A04770BDC046610A0000C903000012
:100DD000350B0000750B0000F0B583B004000E0069
:100DE000170001932A20084DA8472000074CA04770
:100DF0003800A0472B20A8473000A0470198A04703
:100E00002C20A84703B0F0BD350B0000B50B000047
:100E100070B514004B1C9BB2421C92B2024DA84705
:100E20002000024B984770BDD90D0000B50B0000A3
:100E3000F8B500248EB285B2044FA0B2320029006A
:100E4000B8470134A02CF8D1F8BDC046110E0000FF
:100E5000F0B5DE4657464E464546E0B585B00391AF
:100E600001930EAB00241B5F0293A0231B1A072BD8
:100E700037DD80235B1A072B33DD203AD2B2930093
:100E80009A181B4B9B46934486B2731D9BB298469F
:100E9000184B9A46994600961CE06B461A89210029
:100EA0000098D04701350134A4B2082D09D0330091
:100EB0002B411F42F1D06B469A8821000098C84709
:100EC000F0E701239C46E344009E0136B3B2009351
:100ED000434506D05B461E786B469C89002501275A
:100EE000E5E705B03CBC90469946A246AB46F0BD4E
:100EF000801D0000110E0000F0B585B002911700B2
:100F000003930AAB00269E5F1278002A0DD084B2AC
:100F10000137074D20B20096039B0299A8473A7803
:100F20000534A4B20137002AF4D105B0F0BDC046A3
:100F3000510E000070B506008023A0220021002081
:100F4000054CA047A024E401044D3000A847013C13
:100F5000002CFAD170BDC046D90D0000B50B0000C1
:100F60000C4B1B68002B06D1EFF31083002B07D02E
:100F70000022094B1A70074A136801331360704747
:100F800072B6BFF35F8F0022044B1A700132024B1E
:100F90001A70F0E72C00002030000020080000202C
:100FA000084B1A68013A1A601B68002B09D1064BDE
:100FB0001B78002B05D00122044B1A70BFF35F8F02
:100FC00062B670472C00002030000020080000208E
:100FD000F0B583B001AC012565700027A7702570BE
:100FE00021003E20064EB0478022D205054B9A6173
:100FF0002770657021000F20B04703B0F0BDC046D8
:10100000091000008044004100B583B001AB80228C
:101010001A700A785A704A789A708A78DA701900C9
:10102000014B984703B000BD6917000010B50828B0
:1010300003D880001C4B1B589F46002032E01B4BFE
:1010400018692FE01A4B1B6A9B059B0F1948D84063
:1010500028E0164B586925E0144B1B6800209B07BD
:1010600020D513491022CB681A42FCD00F4B1A68C6
:1010700024231340042B01D00F4813E000200F4B12
:1010800098470A4B9B681B041B0C58430AE05023EB
:10109000074AD35C00205B0704D5044BD86801E005
:1010A0008020000210BDC046601F000034000020F8
:1010B0000008004000127A00006CDC028D1600006F
:1010C00070B50C490B6A047885784078012210408D
:1010D00080014026B34303432A40D201802083434A
:1010E00013430322224012020348034013430B62BE
:1010F00070BDC04600080040FFFCFFFFF0B5DE46B3
:1011000057464E464546E0B50100264B9B469B8A16
:10111000457800784242424191468878CA789446A0
:101120000A7990464E7B0F7B8C7B8A681E494A6108
:1011300001214A4692009146042293434A461343B2
:1011400042460A40D2009046082293434246134347
:1011500062460A40120194461022934362461343AA
:10116000084040012022934303430F40BF01402029
:1011700083433B430E40F601403083433343793889
:1011800005402D02094803402B432140090308482C
:1011900003400B435A4693823CBC90469946A24674
:1011A000AB46F0BD0008004034000020FFF8FFFF10
:1011B000FFEFFFFF10B5037A9B061B0C42899205D7
:1011C000920D134318494B608379C27913434288C7
:1011D0008488224313434278D20113430B6003787F
:1011E000042B11D0202B0ED1037B9B06028A1343C4
:1011F000C28912040D490A4013430B4A93601168D7
:101200000B4B0B43136010BD037B9B06028A1343F9
:10121000C289120405490A401343034A93601368C4
:1012200004210B431360EEE7340000200000FF03AD
:1012300024040000082803D88000254B1B589F4633
:10124000172044E0234A136A02210B431362002053
:101250003DE0204A936902210B439361002036E070
:101260001C4A138A02210B43138200202FE0194AE3
:10127000938A02210B439382002028E016490B68D1
:10128000022213430B60134B9A8419000E32CB6871
:101290001A42FCD0104A91680E4BD96252689A6289
:1012A00000229A8419001032CB681A42FCD00A4BF3
:1012B0001B689BB2074A9384002008E0054944223A
:1012C0008B5C022003438B54002000E00020704719
:1012D000841F00000008004034000020F0B58FB0EB
:1012E000C222D200474B9A6047494B681E22934363
:1012F0001C3A13434B6001AB1A700024434DE0B21B
:1013000001A9A8470134252CF9D10AA800230370AC
:101310008370802212028260C37001220271037303
:101320008373053242704373394B98470520394B1C
:10133000984734490222CB681A42FCD0314A938A3A
:1013400080210B43938205AB0021002259809980B4
:101350009A71DA713F3159813B3919705A702E4BAD
:101360001B689B0E3F2B4BD005A80372B723DB00F5
:101370000382072303733833C381284B984704A89B
:1013800000254570012686700570254B984706207C
:10139000204FB847234B984701AC029665702572E1
:1013A000657205232370210001201F4B98470120FF
:1013B0001E4B9847267021000020144B98470020B0
:1013C0001B4B98470720B8470E49D022CB681340E3
:1013D000D02BFBD1174A0023137253729372D3722E
:1013E00001A901224A604B700B724B7207330B70DC
:1013F00000200D4B984700200C4B98470FB0F0BDD4
:10140000203BB1E700080040004000417116000099
:10141000FD1000003512000024608000B5110000AE
:10142000C1100000391400005D1400001515000003
:10143000E515000000040040064A936908210B43AB
:1014400093610122044B1A7019000B781342FCD1EE
:101450007047C04600040040000C004070B5060014
:1014600004000D782D0205434B78002B02D0802319
:10147000DB021D434B7A002B02D080231B031D434C
:101480004868012810D9431E184234D1022830D9A7
:101490000223002201325B009842FBD81202324341
:1014A000140080235B031D430B7A002B02D08023A2
:1014B0009B031D43134A53785BB2002BFBDB124B9B
:1014C0009847124B1E700F4A53785BB2002BFBDB20
:1014D0000C4B9C601A0053785BB2002BFBDB094A73
:1014E0005368802149020B401D435560084B9847C3
:1014F00070BD0022D2E70402344380239B021D43C7
:10150000D2E7C046000C0040610F0000080C00400C
:10151000A10F000010B504000B4A53785BB2002BFA
:10152000FBDB0A4B98470A4B1C70074A53785BB2A7
:10153000002BFBDB044A516880235B020B435360A2
:10154000044B984710BDC046000C0040610F0000DE
:10155000040C0040A10F000070B504001A4A537833
:101560005BB2002BFBDB194B9847194B1C70164ADA
:1015700053785BB2002BFBDB134E7068C004C00EC7
:10158000144B98470500124B1C707668F602F60F54
:10159000114B1C700C4A53785BB2002BFBDB0A4BDF
:1015A0009C682402240C0D4B9847002E07D1012C77
:1015B00007D9210028000A4B9847050001E00134B3
:1015C000E540280070BDC046000C0040610F0000DF
:1015D000040C00402D100000080C0040A10F00007A
:1015E000C11B000010B50400064B9847064B1C7049
:1015F000064A53888021C9010B435380044B984706
:1016000010BDC046610F0000020C0040000C0040FD
:10161000A10F000010B504000F4B98470F4B1C7032
:101620000F4A53881B05180F53880E490B405380EF
:1016300053880D490B40538011008022D2014B8802
:101640001342FCD106494A8803020648024013436C
:101650004B80064B984710BD610F0000020C004004
:10166000000C0040FFF0FFFFFFBFFFFFA10F0000D5
:1016700010B50C7824020443024B9847A4B2024BE5
:101680005C8010BD15160000000C004010B5040071
:10169000064B9847064B1C70064B5C882405240FAC
:1016A000054B98472000054B984710BD610F00007F
:1016B000020C0040000C0040A10F00005915000072
:1016C00030B5D378002B35D11378802B29D01B0669
:1016D00080246402234354780225AC4306D19478D5
:1016E000002C20D18024A402234341605478013C83
:1016F000012C1CD90D042D0CA024E4052C431C4303
:1017000084620D0CD02424062C431C438462D478BC
:10171000002C22D15B031CD59378012B1ED0416194
:1017200017E00023D7E7C024E4022343DDE70D4C94
:101730002340DFE741600C04240CA023DB05234396
:1017400083620C0CD0231B0623438362D378002BC7
:1017500003D15378013B012B02D930BD8161F8E7F9
:101760008160FAE7FFFFFBFF10B50A00C109002303
:10177000002904D14309DB0105498C4663441F2439
:101780002040012181401800024B984710BDC046FF
:1017900000440041C11600007047000010B5054B21
:1017A0009847054B9847054B9847054B9847054B7D
:1017B000984710BDDD120000D10F000099170000FE
:1017C0002D01000099170000FEE70000F8B52A4A35
:1017D0002A4B9A4211D01A00294B9A420DD2294A1B
:1017E00003339B1A9B0801339B00002223482249A4
:1017F0008C58845004329A42FAD1234A234B9A429D
:101800000AD2D34321495B1803218B4304339B182D
:10181000002102C29342FCD11D4AFF211D4B8B4384
:101820009360FD3990235B001B4AD1501B4AD3784B
:101830000325AB4302242343D370D3780C27BB4347
:1018400008263343D370164B987B302290432022D6
:1018500010439873997BB943314399739A7BAA4398
:1018600022439A730F4A536880210B4353600E4BF7
:1018700098470E4B9847FEE7EC1F00000000002041
:101880000C000020040000200C000020A400002018
:1018900000ED00E000000000007000410050004139
:1018A0000048004100400041D91C0000D919000047
:1018B00010B5064A1378013BDBB213700122044BCA
:1018C0001A70C820034B984710BDC046A2000020E4
:1018D000A0000020C903000010B5064A13780133A8
:1018E000DBB213700122044B1A70C820034B9847D7
:1018F00010BDC046A2000020A0000020C9030000C7
:1019000010B5074A1378DBB206490B700023137039
:101910000122054B1A70C820044B984710BDC046E1
:10192000A2000020A1000020A0000020C9030000A8
:10193000F0B5C64600B584B001AC2000124B984605
:1019400098472B2301930027676001252572E572D4
:1019500021000B200D4EB0472000C0472A230193E1
:1019600067602572E57221000A20B0472000C04759
:101970000923019367602572E57221000920B047B1
:1019800004B004BC9046F0BD99010000AD01000018
:1019900070B500220B210B480B4DA84700210B20EE
:1019A0000A4CA04700220A210948A84700210A2022
:1019B000A047002209210748A84700210920A04785
:1019C00070BDC046B1180000E90200001503000018
:1019D000D918000001190000F0B5DE4657464E4602
:1019E0004546E0B58BB0654B9847654B9847654BCE
:1019F0009847654B9847654B9847654B984700203B
:101A0000644B984702AC644B270007CB07C71B8881
:101A10003B800026009601235B422200082108201B
:101A20005E4DA846A8475E4B220023CB23C206CBBF
:101A300006C7009601235B42220010210820C04700
:101A400058491A20584B9847002201210020574B33
:101A50009847574B1E70574B1E70574B1E700122F4
:101A6000564B1A700336534C514D2F0015E0534B13
:101A70001B78012B1BD0514B1B78022B4AD04C4BAF
:101A80001878C0B24D4B1978C9B24B4B1A78D2B204
:101A9000464B98470022474B1A702378002BFCD006
:101AA0002B782B78DBB29E42E1D23E70DFE7424BCF
:101AB0001B78022BDFD10222404B1A7000239A467A
:101AC0003D4B52461A700020324B984702AB984665
:101AD000314B424643CB43C21B881380534600938D
:101AE000013B4246082108202C4EB346B0472C4B00
:101AF000424643CB43C203CB03C253460093013B50
:101B0000424610210820D84726491A20264B9847DC
:101B10000226B4E7284B1B78022BB0D10122274BB9
:101B20001A7000239A46244B52461A700020194B13
:101B3000984702AB9846184B424643CB43C21B889A
:101B4000138053460093013B424608210820134E60
:101B5000B346B047124B424643CB43C203CB03C20A
:101B600053460093013B424610210820D8470D49B7
:101B70001A200D4B9847032681E7C0469D170000A9
:101B8000311900009119000089030000410A00008A
:101B9000010C0000350F0000A81F0000F90E000026
:101BA000B81F0000FFFF0000310E000025020000FA
:101BB000A2000020A0000020A10000209F00002023
:101BC000002243088B4274D303098B425FD3030A7C
:101BD0008B4244D3030B8B4228D3030C8B420DD38F
:101BE000FF22090212BA030C8B4202D3121209021D
:101BF00065D0030B8B4219D300E0090AC30B8B425B
:101C000001D3CB03C01A5241830B8B4201D38B0308
:101C1000C01A5241430B8B4201D34B03C01A5241AD
:101C2000030B8B4201D30B03C01A5241C30A8B42F0
:101C300001D3CB02C01A5241830A8B4201D38B02DB
:101C4000C01A5241430A8B4201D34B02C01A52417F
:101C5000030A8B4201D30B02C01A5241CDD2C309F1
:101C60008B4201D3CB01C01A524183098B4201D36D
:101C70008B01C01A524143098B4201D34B01C01A58
:101C8000524103098B4201D30B01C01A5241C308D0
:101C90008B4201D3CB00C01A524183088B4201D33F
:101CA0008B00C01A524143088B4201D34B00C01A2B
:101CB0005241411A00D20146524110467047FFE797
:101CC00001B5002000F006F802BDC0460029F7D09B
:101CD00076E770477047C04670B500260C4D0D4C36
:101CE000641BA410A64209D1002600F06FF90A4D2A
:101CF0000A4C641BA410A64205D170BDB300EB587A
:101D000098470136EEE7B300EB5898470136F2E703
:101D1000D81F0000D81F0000D81F0000DC1F0000E3
:101D200003008218934200D1704719700133F9E71C
:101D30004F7074696F6E2031000000004F7074693D
:101D40006F6E2032000000004F7074696F6E203398
:101D5000000000004F7074696F6E203400000000B6
:101D60004261636B0000000000080042000C00426A
:101D7000001000420014004200180042001C004203
:101D8000000000000000005F0000000700070014D2
:101D90007F147F14242A7F2A122313086462364991
:101DA0005522500005030000001C22410000412282
:101DB0001C0014083E081408083E080800503000B3
:101DC00000080808080800606000002010080402ED
:101DD0003E5149453E00427F400042615149462103
:101DE00041454B311814127F1027454545393C4A6F
:101DF00049493001710905033649494936064949BF
:101E0000291E003636000000563600000814224114
:101E1000001414141414004122140802015109067C
:101E2000324979413E7E1111117E7F494949363E42
:101E3000414141227F4141221C7F494949417F095B
:101E40000909013E4149497A7F0808087F00417F1E
:101E500041002040413F017F081422417F40404023
:101E6000407F020C027F7F0408107F3E4141413ECB
:101E70007F090909063E4151215E7F09192946461D
:101E80004949493101017F01013F4040403F1F2046
:101E900040201F3F4038403F631408146307087018
:101EA00008076151494543007F4141000204081081
:101EB000200041417F0004020102044040404040B4
:101EC000000102040020545454787F4844443838B8
:101ED00044444420384444487F3854545418087EBD
:101EE0000901020C5252523E7F0804047800447DDE
:101EF00040002040443D007F1028440000417F40C6
:101F0000007C041804787C0804047838444444387D
:101F10007C14141408081414187C7C080404084861
:101F200054545420043F4440203C4040207C1C201A
:101F300040201C3C4030403C44281028440C505069
:101F4000503C4464544C44000836410000007F007B
:101F500000004136080010080810080006090906AC
:101F60003E1000003A1000003A100000A0100000DF
:101F7000A010000052100000441000005810000093
:101F80008E1000006012000040120000401200009D
:101F9000CC120000521200006E1200004412000029
:101FA0007C120000BC12000057656C636F6D6520E9
:101FB0006261636B2100000050726F76696E67206A
:101FC0004669656C64732076302E3100F8B5C046E2
:101FD000F8BC08BC9E467047DD000000F8B5C0465E
:0C1FE000F8BC08BC9E467047B50000002D
:0C1FEC00401F0000080000000100000081
:04000003000017CD15
:00000001FF
